{
  "_format": "hh-sol-artifact-1",
  "contractName": "Lock",
  "sourceName": "contracts/Lock.sol",
  "abi": [
    {
      "inputs": [],
      "stateMutability": "nonpayable",
      "type": "constructor"
    },
    {
      "anonymous": false,
      "inputs": [
        {
          "indexed": false,
          "internalType": "uint256",
          "name": "caseId",
          "type": "uint256"
        }
      ],
      "name": "AppealRequested",
      "type": "event"
    },
    {
      "anonymous": false,
      "inputs": [
        {
          "indexed": false,
          "internalType": "uint256",
          "name": "caseId",
          "type": "uint256"
        }
      ],
      "name": "CaseCreated",
      "type": "event"
    },
    {
      "anonymous": false,
      "inputs": [
        {
          "indexed": false,
          "internalType": "uint256",
          "name": "caseId",
          "type": "uint256"
        },
        {
          "indexed": false,
          "internalType": "string",
          "name": "verdict",
          "type": "string"
        }
      ],
      "name": "CaseFinalized",
      "type": "event"
    },
    {
      "anonymous": false,
      "inputs": [
        {
          "indexed": false,
          "internalType": "address",
          "name": "juror",
          "type": "address"
        }
      ],
      "name": "JurorAdded",
      "type": "event"
    },
    {
      "anonymous": false,
      "inputs": [
        {
          "indexed": false,
          "internalType": "uint256",
          "name": "caseId",
          "type": "uint256"
        },
        {
          "indexed": false,
          "internalType": "address",
          "name": "juror",
          "type": "address"
        },
        {
          "indexed": false,
          "internalType": "enum Lock.Verdict",
          "name": "vote",
          "type": "uint8"
        }
      ],
      "name": "VoteCast",
      "type": "event"
    },
    {
      "inputs": [],
      "name": "caseCount",
      "outputs": [
        {
          "internalType": "uint256",
          "name": "",
          "type": "uint256"
        }
      ],
      "stateMutability": "view",
      "type": "function"
    },
    {
      "inputs": [
        {
          "internalType": "uint256",
          "name": "",
          "type": "uint256"
        }
      ],
      "name": "cases",
      "outputs": [
        {
          "internalType": "uint256",
          "name": "id",
          "type": "uint256"
        },
        {
          "internalType": "string",
          "name": "description",
          "type": "string"
        },
        {
          "internalType": "string",
          "name": "evidenceURI",
          "type": "string"
        },
        {
          "internalType": "string",
          "name": "category",
          "type": "string"
        },
        {
          "internalType": "uint256",
          "name": "guiltyVotes",
          "type": "uint256"
        },
        {
          "internalType": "uint256",
          "name": "notGuiltyVotes",
          "type": "uint256"
        },
        {
          "internalType": "uint256",
          "name": "createdAt",
          "type": "uint256"
        },
        {
          "internalType": "uint256",
          "name": "deadline",
          "type": "uint256"
        },
        {
          "internalType": "enum Lock.CaseStatus",
          "name": "status",
          "type": "uint8"
        },
        {
          "internalType": "string",
          "name": "finalVerdict",
          "type": "string"
        }
      ],
      "stateMutability": "view",
      "type": "function"
    },
    {
      "inputs": [
        {
          "internalType": "string",
          "name": "_description",
          "type": "string"
        },
        {
          "internalType": "string",
          "name": "_evidenceURI",
          "type": "string"
        },
        {
          "internalType": "string",
          "name": "_category",
          "type": "string"
        },
        {
          "internalType": "address[]",
          "name": "_jurors",
          "type": "address[]"
        },
        {
          "internalType": "uint256",
          "name": "_durationInMinutes",
          "type": "uint256"
        }
      ],
      "name": "createCase",
      "outputs": [],
      "stateMutability": "nonpayable",
      "type": "function"
    },
    {
      "inputs": [
        {
          "internalType": "uint256",
          "name": "_caseId",
          "type": "uint256"
        }
      ],
      "name": "getCaseSummary",
      "outputs": [
        {
          "internalType": "string",
          "name": "description",
          "type": "string"
        },
        {
          "internalType": "string",
          "name": "evidenceURI",
          "type": "string"
        },
        {
          "internalType": "string",
          "name": "category",
          "type": "string"
        },
        {
          "internalType": "enum Lock.CaseStatus",
          "name": "status",
          "type": "uint8"
        },
        {
          "internalType": "string",
          "name": "verdict",
          "type": "string"
        },
        {
          "internalType": "uint256",
          "name": "deadline",
          "type": "uint256"
        }
      ],
      "stateMutability": "view",
      "type": "function"
    },
    {
      "inputs": [],
      "name": "jurorReward",
      "outputs": [
        {
          "internalType": "uint256",
          "name": "",
          "type": "uint256"
        }
      ],
      "stateMutability": "view",
      "type": "function"
    },
    {
      "inputs": [
        {
          "internalType": "address",
          "name": "",
          "type": "address"
        }
      ],
      "name": "jurors",
      "outputs": [
        {
          "internalType": "bool",
          "name": "registered",
          "type": "bool"
        },
        {
          "internalType": "uint256",
          "name": "reputation",
          "type": "uint256"
        },
        {
          "internalType": "uint256",
          "name": "casesParticipated",
          "type": "uint256"
        },
        {
          "internalType": "uint256",
          "name": "penalties",
          "type": "uint256"
        }
      ],
      "stateMutability": "view",
      "type": "function"
    },
    {
      "inputs": [],
      "name": "owner",
      "outputs": [
        {
          "internalType": "address",
          "name": "",
          "type": "address"
        }
      ],
      "stateMutability": "view",
      "type": "function"
    },
    {
      "inputs": [
        {
          "internalType": "address",
          "name": "_juror",
          "type": "address"
        }
      ],
      "name": "registerJuror",
      "outputs": [],
      "stateMutability": "nonpayable",
      "type": "function"
    },
    {
      "inputs": [
        {
          "internalType": "uint256",
          "name": "_caseId",
          "type": "uint256"
        }
      ],
      "name": "requestAppeal",
      "outputs": [],
      "stateMutability": "nonpayable",
      "type": "function"
    },
    {
      "inputs": [
        {
          "internalType": "uint256",
          "name": "_caseId",
          "type": "uint256"
        },
        {
          "internalType": "bool",
          "name": "_voteGuilty",
          "type": "bool"
        }
      ],
      "name": "vote",
      "outputs": [],
      "stateMutability": "nonpayable",
      "type": "function"
    },
    {
      "stateMutability": "payable",
      "type": "receive"
    }
  ],
  "bytecode": "0x6080604052662386f26fc10000600255348015601a57600080fd5b50600080546001600160a01b0319163317905561195e8061003c6000396000f3fe6080604052600436106100955760003560e01c8063c7e2774611610059578063c7e2774614610164578063c9d27afe14610196578063da2d7e95146101b6578063dca5f6b0146101cc578063f09790dd1461023457600080fd5b806360e4c365146100a15780638da5cb5b146100c357806390c3f0f814610100578063b1e3c43814610120578063c267ea6e1461014057600080fd5b3661009c57005b600080fd5b3480156100ad57600080fd5b506100c16100bc366004611350565b61026a565b005b3480156100cf57600080fd5b506000546100e3906001600160a01b031681565b6040516001600160a01b0390911681526020015b60405180910390f35b34801561010c57600080fd5b506100c161011b36600461148f565b6104b9565b34801561012c57600080fd5b506100c161013b3660046114b1565b61057d565b34801561014c57600080fd5b5061015660025481565b6040519081526020016100f7565b34801561017057600080fd5b5061018461017f3660046114b1565b61065d565b6040516100f796959493929190611547565b3480156101a257600080fd5b506100c16101b13660046115b7565b6108eb565b3480156101c257600080fd5b5061015660015481565b3480156101d857600080fd5b506102126101e736600461148f565b600460205260009081526040902080546001820154600283015460039093015460ff90921692909184565b60408051941515855260208501939093529183015260608201526080016100f7565b34801561024057600080fd5b5061025461024f3660046114b1565b610bc1565b6040516100f79a999897969594939291906115ec565b6000546001600160a01b0316331461029d5760405162461bcd60e51b81526004016102949061167b565b60405180910390fd5b6003825110156102ef5760405162461bcd60e51b815260206004820152601960248201527f4d696e696d756d2033206a75726f7273207265717569726564000000000000006044820152606401610294565b600180549060006102ff836116b5565b90915550506001805460008181526003602052604090209081559081016103268782611756565b50600281016103358682611756565b50600381016103448582611756565b50825161035a9060048301906020860190611203565b50600b8101805460ff1916905542600982015561037882603c611815565b610382904261182c565b600a82015560005b835181101561047557600460008583815181106103a9576103a961183f565b6020908102919091018101516001600160a01b031682528101919091526040016000205460ff166104115760405162461bcd60e51b81526020600482015260126024820152712ab73932b3b4b9ba32b932b210353ab937b960711b6044820152606401610294565b600082600501600086848151811061042b5761042b61183f565b6020908102919091018101516001600160a01b03168252810191909152604001600020805460ff1916600183600281111561046857610468611510565b021790555060010161038a565b507f18b36092ac212dd4064430eaa7385b398ad5a741f1b5246d7cd1b62847ba111a6001546040516104a991815260200190565b60405180910390a1505050505050565b6000546001600160a01b031633146104e35760405162461bcd60e51b81526004016102949061167b565b604080516080810182526001808252606460208084019182526000848601818152606086018281526001600160a01b03891680845260048552928890209651875460ff191690151517875593519486019490945592516002850155905160039093019290925591519182527ff8178f8760667f25bd537d505a67e00d13e86618daf92afc41e42570cb7bcbca91015b60405180910390a150565b6000546001600160a01b031633146105a75760405162461bcd60e51b81526004016102949061167b565b60016000828152600360205260409020600b015460ff1660028111156105cf576105cf611510565b146106105760405162461bcd60e51b815260206004820152601160248201527010d85cd9481b9bdd081c995cdbdb1d9959607a1b6044820152606401610294565b600081815260036020908152604091829020600b01805460ff1916600217905590518281527fca8d4564de04f72f716e3c4769568c6736b4b647491f37146bb42b0d3338534a9101610572565b60608060606000606060008060036000898152602001908152602001600020905080600101816002018260030183600b0160009054906101000a900460ff1684600c0185600a01548580546106b1906116ce565b80601f01602080910402602001604051908101604052809291908181526020018280546106dd906116ce565b801561072a5780601f106106ff5761010080835404028352916020019161072a565b820191906000526020600020905b81548152906001019060200180831161070d57829003601f168201915b5050505050955084805461073d906116ce565b80601f0160208091040260200160405190810160405280929190818152602001828054610769906116ce565b80156107b65780601f1061078b576101008083540402835291602001916107b6565b820191906000526020600020905b81548152906001019060200180831161079957829003601f168201915b505050505094508380546107c9906116ce565b80601f01602080910402602001604051908101604052809291908181526020018280546107f5906116ce565b80156108425780601f1061081757610100808354040283529160200191610842565b820191906000526020600020905b81548152906001019060200180831161082557829003601f168201915b50505050509350818054610855906116ce565b80601f0160208091040260200160405190810160405280929190818152602001828054610881906116ce565b80156108ce5780601f106108a3576101008083540402835291602001916108ce565b820191906000526020600020905b8154815290600101906020018083116108b157829003601f168201915b505050505091509650965096509650965096505091939550919395565b3360009081526004602052604090205460ff166109435760405162461bcd60e51b81526020600482015260166024820152752737ba1030903932b3b4b9ba32b932b210353ab937b960511b6044820152606401610294565b6000828152600360205260409020600a81015442111561099e5760405162461bcd60e51b8152602060048201526016602482015275159bdd1a5b99c8191958591b1a5b99481c185cdcd95960521b6044820152606401610294565b6000600b82015460ff1660028111156109b9576109b9611510565b146109f45760405162461bcd60e51b815260206004820152600b60248201526a10d85cd94818db1bdcd95960aa1b6044820152606401610294565b6109fe8333610e3b565b610a4a5760405162461bcd60e51b815260206004820152601960248201527f4e6f742061737369676e656420746f20746869732063617365000000000000006044820152606401610294565b33600090815260068201602052604090205460ff1615610a9c5760405162461bcd60e51b815260206004820152600d60248201526c105b1c9958591e481d9bdd1959609a1b6044820152606401610294565b3360009081526006820160205260409020805460ff1916600117905581610ac4576002610ac7565b60015b3360009081526005830160205260409020805460ff19166001836002811115610af257610af2611510565b02179055508115610b1957600781018054906000610b0f836116b5565b9190505550610b31565b600881018054906000610b2b836116b5565b91905055505b336000908152600460205260408120600201805491610b4f836116b5565b9091555050336000818152600583016020526040908190205490517feba4866100b822f0f391e610e7edfab790b9e8766c0012733c26b2f1858e8dd792610b9d92879260ff90911690611855565b60405180910390a1610bae83610f00565b15610bbc57610bbc83610f7f565b505050565b60036020526000908152604090208054600182018054919291610be3906116ce565b80601f0160208091040260200160405190810160405280929190818152602001828054610c0f906116ce565b8015610c5c5780601f10610c3157610100808354040283529160200191610c5c565b820191906000526020600020905b815481529060010190602001808311610c3f57829003601f168201915b505050505090806002018054610c71906116ce565b80601f0160208091040260200160405190810160405280929190818152602001828054610c9d906116ce565b8015610cea5780601f10610cbf57610100808354040283529160200191610cea565b820191906000526020600020905b815481529060010190602001808311610ccd57829003601f168201915b505050505090806003018054610cff906116ce565b80601f0160208091040260200160405190810160405280929190818152602001828054610d2b906116ce565b8015610d785780601f10610d4d57610100808354040283529160200191610d78565b820191906000526020600020905b815481529060010190602001808311610d5b57829003601f168201915b50505050509080600701549080600801549080600901549080600a01549080600b0160009054906101000a900460ff169080600c018054610db8906116ce565b80601f0160208091040260200160405190810160405280929190818152602001828054610de4906116ce565b8015610e315780601f10610e0657610100808354040283529160200191610e31565b820191906000526020600020905b815481529060010190602001808311610e1457829003601f168201915b505050505090508a565b600082815260036020908152604080832060040180548251818502810185019093528083528493830182828015610e9b57602002820191906000526020600020905b81546001600160a01b03168152600190910190602001808311610e7d575b5050505050905060005b8151811015610ef357836001600160a01b0316828281518110610eca57610eca61183f565b60200260200101516001600160a01b031603610eeb57600192505050610efa565b600101610ea5565b5060009150505b92915050565b6000818152600360205260408120815b6004820154811015610f7557816006016000836004018381548110610f3757610f3761183f565b60009182526020808320909101546001600160a01b0316835282019290925260400190205460ff16610f6d575060009392505050565b600101610f10565b5060019392505050565b6000818152600360205260409020600b8101805460ff19166001179055600881015460078201541115610fde576040805180820190915260068152654775696c747960d01b6020820152600c820190610fd89082611756565b50611055565b80600701548160080154111561101e5760408051808201909152600a8152694e6f74204775696c747960b01b6020820152600c820190610fd89082611756565b60408051808201909152600f81526e546965202848756e67204a7572792960881b6020820152600c8201906110539082611756565b505b7f5e42464d6fd7ef5a35b03915effd6dc701436c734c296e66861e17b9b914f4d78282600c01604051611089929190611882565b60405180910390a161109a8261109e565b5050565b6000818152600360205260408120905b6004820154811015610bbc5760008260040182815481106110d1576110d161183f565b60009182526020808320909101546001600160a01b03168083526006860190915260409091205490915060ff1615611174576002546040516001600160a01b0383169180156108fc02916000818181858888f1935050505015801561113a573d6000803e3d6000fd5b506001600160a01b0381166000908152600460205260408120600190810180549192909161116990849061182c565b909155506111fa9050565b6001600160a01b03811660009081526004602052604081206003018054600192906111a090849061182c565b90915550506001600160a01b038116600090815260046020526040902060010154156111fa576001600160a01b038116600090815260046020526040812060019081018054919290916111f4908490611915565b90915550505b506001016110ae565b828054828255906000526020600020908101928215611258579160200282015b8281111561125857825182546001600160a01b0319166001600160a01b03909116178255602090920191600190910190611223565b50611264929150611268565b5090565b5b808211156112645760008155600101611269565b634e487b7160e01b600052604160045260246000fd5b604051601f8201601f1916810167ffffffffffffffff811182821017156112bc576112bc61127d565b604052919050565b600082601f8301126112d557600080fd5b813567ffffffffffffffff8111156112ef576112ef61127d565b611302601f8201601f1916602001611293565b81815284602083860101111561131757600080fd5b816020850160208301376000918101602001919091529392505050565b80356001600160a01b038116811461134b57600080fd5b919050565b600080600080600060a0868803121561136857600080fd5b853567ffffffffffffffff81111561137f57600080fd5b61138b888289016112c4565b955050602086013567ffffffffffffffff8111156113a857600080fd5b6113b4888289016112c4565b945050604086013567ffffffffffffffff8111156113d157600080fd5b6113dd888289016112c4565b935050606086013567ffffffffffffffff8111156113fa57600080fd5b8601601f8101881361140b57600080fd5b803567ffffffffffffffff8111156114255761142561127d565b8060051b61143560208201611293565b9182526020818401810192908101908b84111561145157600080fd5b6020850194505b8385101561147a5761146985611334565b825260209485019490910190611458565b989b979a509598608001359695505050505050565b6000602082840312156114a157600080fd5b6114aa82611334565b9392505050565b6000602082840312156114c357600080fd5b5035919050565b6000815180845260005b818110156114f0576020818501810151868301820152016114d4565b506000602082860101526020601f19601f83011685010191505092915050565b634e487b7160e01b600052602160045260246000fd5b6003811061154457634e487b7160e01b600052602160045260246000fd5b50565b60c08152600061155a60c08301896114ca565b828103602084015261156c81896114ca565b9050828103604084015261158081886114ca565b905061158b86611526565b85606084015282810360808401526115a381866114ca565b9150508260a0830152979650505050505050565b600080604083850312156115ca57600080fd5b82359150602083013580151581146115e157600080fd5b809150509250929050565b8a81526101406020820152600061160761014083018c6114ca565b8281036040840152611619818c6114ca565b9050828103606084015261162d818b6114ca565b90508860808401528760a08401528660c08401528560e084015261165085611526565b8461010084015282810361012084015261166a81856114ca565b9d9c50505050505050505050505050565b6020808252600a908201526927b7363c9037bbb732b960b11b604082015260600190565b634e487b7160e01b600052601160045260246000fd5b6000600182016116c7576116c761169f565b5060010190565b600181811c908216806116e257607f821691505b60208210810361170257634e487b7160e01b600052602260045260246000fd5b50919050565b601f821115610bbc57806000526020600020601f840160051c8101602085101561172f5750805b601f840160051c820191505b8181101561174f576000815560010161173b565b5050505050565b815167ffffffffffffffff8111156117705761177061127d565b6117848161177e84546116ce565b84611708565b6020601f8211600181146117b857600083156117a05750848201515b600019600385901b1c1916600184901b17845561174f565b600084815260208120601f198516915b828110156117e857878501518255602094850194600190920191016117c8565b50848210156118065786840151600019600387901b60f8161c191681555b50505050600190811b01905550565b8082028115828204841417610efa57610efa61169f565b80820180821115610efa57610efa61169f565b634e487b7160e01b600052603260045260246000fd5b8381526001600160a01b03831660208201526060810161187483611526565b826040830152949350505050565b82815260406020820152600080835461189a816116ce565b80604086015260018216600081146118b957600181146118d557611909565b60ff1983166060870152606082151560051b8701019350611909565b86600052602060002060005b83811015611900578154888201606001526001909101906020016118e1565b87016060019450505b50919695505050505050565b81810381811115610efa57610efa61169f56fea26469706673582212203abde4b56f01b822f52c54a6d91eadb7b7acb6331c793b69c8ef00bb6d4a900864736f6c634300081c0033",
  "linkReferences": {},
  "deployedLinkReferences": {}
}